:020000041000EA
:1000000000B5324B212058609868022188439860DF
:10001000D860186158612E4B002199600221596106
:100020000121F02299502B49196001219960352056
:1000300000F044F80222904214D00621196600F024
:1000400034F8196E01211966002018661A6600F04E
:100050002CF8196E196E196E052000F02FF8012189
:100060000842F9D1002199601B49196000215960AB
:100070001A491B48016001219960EB211966A021F2
:10008000196600F012F800219960164914480160C1
:100090000121996001BC002800D000471248134993
:1000A000086003C880F30888084703B5996A0420EC
:1000B0000142FBD001200142F8D103BD02B5186610
:1000C0001866FFF7F2FF186E186E02BD00000240BE
:1000D000000000180000070000035F00212200005C
:1000E000F4000018222000A00001001008ED00E03C
:1000F00000000000000000000000000074B24E7A12
:1001000000200420F7010010C3010010C5010010F9
:10011000C1010010C1010010C1010010C101001097
:10012000C1010010C1010010C1010010C701001081
:10013000C1010010C1010010C9010010CB01001065
:10014000CD010010CD010010CD010010CD01001037
:10015000CD010010CD010010CD010010CD01001027
:10016000CD010010CD010010CD010010CD01001017
:10017000CD010010CD010010CD010010CD01001007
:10018000CD010010CD010010CD010010CD010010F7
:10019000CD010010CD010010CD010010CD010010E7
:1001A000CD010010CD010010CD010010CD010010D7
:1001B000CD010010CD010010CD010010CD010010C7
:1001C00000BE00BE00BE00BE00BE00BEEFF3058054
:1001D000103800BEF2EB8871109F0110389F01109B
:1001E0003402001090A31AE700201F49086006C8D7
:1001F00081F3088810471D48006800282FD10DA4FE
:100200000ECC002902D000F012F8F9E71849194A7B
:10021000002000E001C19142FCD1174988471749ED
:1002200088471749884700BEFDE701C901C29A42C5
:10023000FBD37047389F0110C000002070180020C9
:10024000E8B601100000042000000420E8B6011008
:10025000001004200010042000000000704709482E
:1002600009F05EFF0047000008ED00E0000000D04C
:1002700070180020301E0020F18D001015060010AF
:10028000B38D00105756000006005250ABB36053B8
:100290008076011006005250861C030290760110F1
:1002A000060052505422A29DA07601100500525023
:1002B000DE65F468E8B60110F8B5C046064807499F
:1002C000091A8B10C90FC91810B5491003D0044B77
:1002D000002B00D0984710BD701800207018002027
:1002E00000000000054B10B5002B03D00449054861
:1002F00000E000BFFFF7E2FF10BDC04600000000B5
:10030000E41B00207065011010B5080011000AF010
:10031000EBFE10BD10B5016803000833994203D00D
:1003200082680132FFF7F0FF10BD10B5012A04D03A
:10033000002A04D00AF0CAFE01E00B78037010BD59
:1003400030B583B0456801954C680094AC420CD33D
:1003500001AB1A6800680968002A03D015F0D8F8C4
:10036000002800D1281B03B030BD6B46F1E710B563
:10037000FFF7E6FF002805D001DB012003E0FF23A3
:10038000181C00E0002010BD70B50C0015001E0008
:1003900001E02500A468002C08D0200010303100B6
:1003A000FFF7E5FF0006F4D5E468F4E7280070BD28
:1003B00010B50B008168021DFFF7E6FF10BD0000BD
:1003C00070B505000E00FFF7F3FF04000435854209
:1003D00009D0010010313000FFF7C9FF000602D438
:1003E0002000283070BD01480BF0AAFC7065011098
:1003F000F8B5CE46474680B50700884615008C689C
:100400000E1D012302E0E26826001400002C0AD031
:10041000210010312800FFF7AAFFC3B2DB09000654
:10042000F1D5A268F0E7B146002B07D04346DB6860
:10043000B34213D030000BF055FB814648461030D4
:100440002900FFF794FF00060BD44B463B600023C6
:100450007B603800C0BCB946B046F8BD3C607E60E9
:10046000F7E73C607E60F4E7F8B5CE46474680B5D6
:1004700004000E0015001F000B1D9A4216D0102319
:100480009946914449463800FFF771FF000622D48F
:1004900039004846FFF76BFF00063DD42560002376
:1004A00063602000C0BCB946B046F8BD4B69002B64
:1004B00007D00D69280010303900FFF758FF0006FB
:1004C00005D43A0031002000FFF792FFE9E700234E
:1004D00023606560E5E7F368AB4210D028000BF0BD
:1004E00001FB804610303900FFF741FF00060DD5B3
:1004F0004346DB68002B05D025606560D1E72360AB
:100500006360CEE7236043466360CAE73A00310088
:100510002000FFF76DFFC4E73369AB4211D028001C
:100520000BF0C8FA8046010010313800FFF71FFFBA
:1005300000060DD5EB68002B07D0434623606360AF
:10054000AFE7002222606360ABE723606560A8E745
:100550003A0031002000FFF74BFFA2E710B5081E5C
:1005600002DB0AF0B9FD10BD0BF09AFB10B50B6869
:10057000002B0DDB934205D95200934202D20A6050
:10058000002A08DB096801310022FFF7E7FF10BDF0
:1005900002480BF0BDFB024B0B60F3E778650110DE
:1005A000FFFFFF7F70B582B004000E00551A019561
:1005B0000F2D0ED8009420682A003100FFF7B5FEF9
:1005C000002200920199616023685B181A7002B0E2
:1005D00070BD002201A9FFF7C9FF2060019BA36045
:1005E000E8E7000070B504000D0003000833036065
:1005F00000290AD0080015F095F92A1800232900CF
:100600002000FFF7CFFF200070BD01480BF068FB12
:100610009065011080B51A4FBD44684603F04EFA4C
:100620000AF074FF684603F0D7FA684603F0CCFB83
:10063000FA20800007F0F5FD684603F0DFFB68460E
:1006400003F0F6FB0F499FAA99A8FFF7CBFF0E48CE
:1006500099A9FFF7B5FE030010220321684603F0B5
:10066000E1FA99A8FFF756FE684603F003FB6846D7
:1006700003F020FC0020A0239B009D4480BDC046C9
:1006800080FDFFFF906601108C19002070B582B0CC
:1006900004000E00551A01950F2D0ED80094206805
:1006A0002A003100FFF741FE0022009201996160AB
:1006B00023685B181A7002B070BD002201A9FFF711
:1006C00055FF2060019BA360E8E7000010B5074BD1
:1006D0008B4204D32C2048430AF0FEFC10BD044B8F
:1006E000994201D90BF0ECFA0BF0DAFA2EBAE802D3
:1006F0005D74D10510B504000B00020008320260E1
:1007000009685A688A180023FFF7C0FF200010BD4F
:1007100070B505000C00FFF7EDFF28001830210030
:10072000183103220AF0D2FC280070BD70B50D000C
:1007300000220121FFF7CAFF040010302900FFF753
:10074000E7FF200070BDF8B5040016001D00002969
:1007500011D00127069B18682900FFF7E7FF050065
:10076000231D3200010038000BF0D8F96369013312
:1007700063612800F8BD031D9A4208D011001031B2
:100780002800FFF7F4FD000603D40027E2E7012765
:10079000E0E70127DEE770B584B0040015001E0015
:1007A00013000A00010002A8FFF75EFE039A002A68
:1007B00007D0029900962B002000FFF7C4FF04B079
:1007C00070BD0298FBE770B582B005000C00160002
:1007D000019006E0291D01AB22002800FFF7DBFF96
:1007E0001C34B442F6D102B070BD000030B5F54CF7
:1007F000A544F549F548684403F050F9F449F54A31
:100800006A4403A8FFF7EEFE6B46F04A9B181B886C
:100810006A4693846B46F04A9B181B786A462621E9
:1008200052181370ED49EE48684403F037F9ED496A
:10083000ED4A6A440AA8FFF7D5FE6B46E84A9B18C2
:100840001B886A464021521813806B46E74A9B1862
:100850001B786A46023152181370E54C2100E548B6
:10086000684403F01BF9E449E44A6A4411A8FFF71D
:10087000B9FE6B46DF4A9B181B886A465C215218FA
:1008800013806B46DE4A9B181B786A460231521869
:100890001370DC49DC48684403F000F9DB49DC4AAA
:1008A0006A4418A8FFF79EFE6B46D74A9B181B8820
:1008B0006A467821521813806B46D64A9B181B78DB
:1008C0006A46023152181370D349D448684403F081
:1008D000E5F8D349D34A6A441FA8FFF783FE6B4665
:1008E000CE4A9B181B886A469421521813806B4687
:1008F000CD4A9B181B786A46023152181370CB49B7
:10090000CB48684403F0CAF8CA49CB4A6A4426A8CF
:10091000FFF768FE6B46C64A9B181B886A46B021E3
:10092000521813806B46C54A9B181B786A460231E1
:1009300052181370C24982204001684403F0AEF897
:10094000C049C14A6A442DA8FFF74CFE6B4682227B
:1009500052019B181B886A46CC21521813806B46A3
:10096000BA4A9B181B786A4602315218137000214C
:10097000B748684403F092F8B649A52252016A4488
:1009800034A8FFF72FFE6B46B14A9B181B886A46B6
:10099000E821521813806B46AF4A9B181B786A46B1
:1009A000023152181370AD49AD48684403F076F82F
:1009B000AC49AD4A6A443BA8FFF714FE6B46A84A0F
:1009C0009B181B886A460532FF3213806B46A74A84
:1009D0009B181B786A460732FF321370FF21A44828
:1009E000684403F05BF8A349A34A6A4442A8FFF7AE
:1009F000F9FD6B469E4A9B181B886A469021490068
:100A0000521813806B469D4A9B181B786A46023128
:100A1000521813709A499B48684403F03FF89A496A
:100A20009A4A6A4449A8FFF7DDFD6B46954A9B1830
:100A30001B886A469E214900521813806B46944ACF
:100A40009B181B786A4602315218137091499248DC
:100A5000684403F023F89149914A6A4450A8FFF78B
:100A6000C1FD6B468C4A9B181B886A46AC21490025
:100A7000521813806B468B4A9B181B786A460231CA
:100A80005218137088498948684403F007F8884968
:100A9000884A6A4457A8FFF7A5FD6B46834A9B180E
:100AA0001B886A46BA214900521813806B46824A55
:100AB0009B181B786A460231521813707F49804890
:100AC000684402F0EBFF7F497F4A6A445EA8FFF763
:100AD00089FD6B467A4A9B181B886A46C8214900E3
:100AE000521813806B46794A9B181B786A4602316C
:100AF00052181370764983204001684402F0CEFFFB
:100B00007449754A6A4465A8FFF76CFD6B468322F9
:100B100052019B181B886A46D6214900521813803F
:100B20006B466E4A9B181B786A4602315218137046
:100B30006B496C48684402F0B1FF6B49A422520132
:100B40006A446CA8FFF74EFD6B46664A9B181B88EB
:100B50006A46E4214900521813806B46634A9B1889
:100B60001B786A4602315218137061496148684423
:100B700002F094FF6049614A6A4473A8FFF732FDAE
:100B80006B465C4A9B181B886A46F2214900521842
:100B900013806B465A4A9B181B786A4602315218DA
:100BA000137058495848684402F078FF5749584A2A
:100BB0006A447AA8FFF716FD6B46534A9B181B88B8
:100BC000A8E0C0463CEBFFFFFFF8F0002810000053
:100BD000C4650110BC1400002A100000D7EBFA0015
:100BE0002C100000D0650110B81400002E10000079
:100BF000FFFF000030100000E0650110B414000099
:100C000032100000D4FF7F0034100000E8650110AE
:100C1000B014000036100000FFFFF0003810000094
:100C2000F4650110AC1400003A100000DCF5F5008A
:100C30003C100000FC650110A81400003E100000EC
:100C4000C4E4FF0004660110A41400004210000078
:100C5000441000000C66011046100000CDEBFF00B0
:100C600048100000146601109C1400004A10000097
:100C70004C10000090660110981400004E10000007
:100C8000E22B8A005010000024660110941400002A
:100C9000521000002A2AA50054100000F46A011026
:100CA000901400005610000087B8DE0058100000B5
:100CB000306601108C1400005A100000A09E5F00E6
:100CC0005C1000003C660110881400005E100000FB
:100CD00000FF7F00486601108414000062100000CD
:100CE0001E69D200641000005466011066100000F6
:100CF000507FFF0068100000606601107C14000047
:100D00006A100000ED9564006C1000006866011028
:100D1000781400006A4680218900521813806B46BF
:100D2000F54A9B181B786A46F44952181370F44927
:100D3000F448684402F0B2FEF349F44A6A4481A8D8
:100D4000FFF750FC6B46EF4A9B181B886A468721C9
:100D50008900521813806B46ED4A9B181B786A462F
:100D6000EC4952181370EC49EC48684402F096FEC6
:100D7000EB49EC4A6A4488A8FFF734FC6B46E74A23
:100D80009B181B886A468E218900521813806B4677
:100D9000E54A9B181B786A46E449521813702100F3
:100DA000E348684402F07AFEE249E34A6A448FA8C5
:100DB000FFF718FC6B46DE4A9B181B886A46952194
:100DC0008900521813806B46DC4A9B181B786A46D0
:100DD000DB4952181370CC39FF39DA48684402F005
:100DE0005DFED949D94A6A4496A8FFF7FBFB6B46DA
:100DF000D44A9B181B886A469C218900521813808C
:100E00006B46D34A9B181B786A46D2495218137016
:100E1000D14984204001684402F040FECF49D04AC5
:100E20006A449DA8FFF7DEFB6B46842252019B18A3
:100E30001B886A46A3218900521813806B46C94A51
:100E40009B181B786A46C84952181370C749C8488E
:100E5000684402F023FEC749A32252016A44A4A8B1
:100E6000FFF7C0FB6B46C24A9B181B886A46AA2143
:100E70008900521813806B46BF4A9B181B786A463C
:100E8000BE4952181370BE4C2100BE48684402F09F
:100E900005FEBD49BD4A6A44ABA8FFF7A3FB6B46FC
:100EA000B84A9B181B886A46B121890052181380E2
:100EB0006B46B74A9B181B786A46B649521813709E
:100EC000FF39FF39C901B448684402F0E7FDB3496E
:100ED000B34A6A44B2A8FFF785FB6B46AE4A9B183B
:100EE0001B886A46B8218900521813806B46AD4AA8
:100EF0009B181B786A46AC49521813702100AB4806
:100F0000684402F0CBFDAA49AA4A6A44B9A8FFF78F
:100F100069FB6B46A54A9B181B886A46BF2189005E
:100F2000521813806B46A44A9B181B786A46A34943
:100F300052181370A249A348684402F0AFFDA249B9
:100F4000A24A6A44C0A8FFF74DFB6B469D4A9B1816
:100F50001B886A46C6218900521813806B469C4A3A
:100F60009B181B786A469B49521813709A499B48F4
:100F7000684402F093FD9A499A4A6A44C7A8FFF769
:100F800031FB6B46954A9B181B886A46CD21890028
:100F9000521813806B46944A9B181B786A469349F3
:100FA0005218137092499348684402F077FD9249B1
:100FB000924A6A44CEA8FFF715FB6B468D4A9B18F0
:100FC0001B886A46D4218900521813806B468C4ACC
:100FD0009B181B786A468B49521813708A498520E2
:100FE0004001684402F05AFD8849894A6A44D5A8FC
:100FF000FFF7F8FA6B46852252019B181B886A4658
:10100000DB218900521813806B46824A9B181B789B
:101010006A4681495218137080498148684402F039
:101020003DFD8049A22252016A44DCA8FFF7DAFAAA
:101030006B467B4A9B181B886A46E221890052183E
:1010400013806B46784A9B181B786A46774952187A
:1010500013708B2109047648684402F01FFD75491E
:10106000754A6A44E3A8FFF7BDFA6B46704A9B18BD
:101070001B886A46E9218900521813806B466F4A23
:101080009B181B786A466E49521813706D496E485A
:10109000684402F003FD6D496D4A6A44EAA8FFF70F
:1010A000A1FA6B46684A9B181B886A46F0218900A2
:1010B000521813806B46674A9B181B786A4666492C
:1010C0005218137065496648684402F0E7FC6549A8
:1010D000654A6A44F1A8FFF785FA6B46604A9B1897
:1010E0001B886A46F7218900521813806B465F4AB5
:1010F0009B181B786A46BBE06E10000002020000DD
:10110000DCF8FF0070100000786601107414000015
:10111000721000001E0200003C14DC00741000007D
:101120008466011070140000761000003A0200007E
:10113000781000009C6601106C1400007A1000000A
:10114000560200007C1000008C660110681400003C
:101150007E100000720200008B8B00009866011068
:1011600064140000821000008E0200000B86B8009C
:1011700084100000A466011086100000AA0200007E
:10118000A9A9A90088100000B46601105C14000031
:101190008A100000C60200008C100000C06601101A
:1011A000581400008E100000E202000090100000B1
:1011B000CC6601105414000092100000FE020000E2
:1011C0006BB7BD0094100000D866011050140000E9
:1011D000961000001A0300008B008B00981000008E
:1011E000E46601104C1400009A1000003603000061
:1011F0002F6B55009C100000F06601104814000091
:101200009E10000052030000008CFF0000670110D8
:1012100044140000A21000006E030000CC329900BC
:10122000A41000000C670110A61000008A03000043
:10123000A8100000186701103C140000AA1000005C
:10124000A60300007A96E900AC10000020670110A8
:1012500038140000AE100000C20300008FBC8F00E5
:10126000B01000002C67011034140000B210000010
:10127000F54952181370F549F548684402F00EFC20
:10128000F449F54A6A44F8A8FFF7ACF96B46F04A0E
:101290009B181B886A46FE218900521813806B46F2
:1012A000EE4A9B181B786A46ED4952181370ED4CB4
:1012B0002100ED48684402F0F1FBEC49EC4A6A4435
:1012C000FFA8FFF78FF96B46E74A9B181B886A4611
:1012D000E849521813806B46E74A9B181B786A4608
:1012E000E649521813702100E548684402F0D6FB25
:1012F000E449E54A6A44FFA81C30FFF773F96B46DE
:10130000DF4A9B181B886A468621C9005218138041
:101310006B46DE4A9B181B786A46DD4952181370EB
:10132000DC4986204001684402F0B8FBDA49DB4A18
:101330006A44FFA83830FFF755F96B468622520100
:101340009B181B886A46D649521813806B46D54AAB
:101350009B181B786A46D44952181370D349D44855
:10136000684402F09BFBD349A12252016A44FFA8C2
:101370005430FFF737F96B46CD4A9B181B886A46F5
:101380008D21C900521813806B46CB4A9B181B78DD
:101390006A46CA4952181370C949CA48684402F0DB
:1013A0007DFBC949C94A6A44FFA87030FFF71AF9A2
:1013B0006B46C44A9B181B886A46C549521813805D
:1013C0006B46C44A9B181B786A46C349521813706F
:1013D000C249C348684402F061FBC249C24A6A4438
:1013E000FFA88C30FFF7FEF86B46BD4A9B181B88A0
:1013F0006A469421C900521813806B46BB4A9B1859
:101400001B786A46BA4952181370BA4C2100BA4880
:10141000684402F043FBB949B94A6A44FFA8A830BE
:10142000FFF7E0F86B46B44A9B181B886A46B5493B
:10143000521813806B46B44A9B181B786A46B3490E
:10144000521813702100B248684402F027FBB149DA
:10145000B14A6A44FFA8C430FFF7C4F86B46AC4AEF
:101460009B181B886A469B21C900521813806B4643
:10147000AA4A9B181B786A46A94952181370A949B1
:10148000A948684402F00AFBA849A94A6A44FFA88F
:10149000E030FFF7A7F86B46A34A9B181B886A4603
:1014A000A449521813806B46A34A9B181B786A46BE
:1014B000A24952181370A249A248684402F0EEFAF9
:1014C000A149A24A6A44FFA8FC30FFF78BF86B469B
:1014D0009C4A9B181B886A46A221C9005218138097
:1014E0006B469B4A9B181B786A469A4952181370A0
:1014F000994987204001684402F0D0FA9749984AF8
:101500006A4498486844FFF76DF86B468722520199
:101510009B181B886A469449521813806B46934A5D
:101520009B181B786A469249521813709149924849
:10153000684402F0B3FA9149A02252016A44A620FD
:10154000C0006844FFF74EF86B468B4A9B181B8817
:101550006A46A921C900521813806B46884A9B1815
:101560001B786A4687495218137087498748684430
:1015700002F094FA8649874A6A4487486844FFF72C
:1015800031F86B46814A9B181B886A46834952187A
:1015900013806B46824A9B181B786A468149521811
:1015A000137081498148684402F078FA8049814A81
:1015B0006A44AD20C0006844FFF714F86B467B4ACC
:1015C0009B181B886A46B021C900521813806B46CD
:1015D000794A9B181B786A467849521813707849E3
:1015E0007848684402F05AFA7749784A6A44784859
:1015F0006844FEF7F7FF6B46724A9B181B886A46E1
:101600007449521813806B46734A9B181B786A46BC
:1016100072495218137072497248684402F03EFAD7
:101620007149724A6A44B420C0006844FEF7DAFF88
:101630006B466C4A9B181B886A46B721C900521832
:1016400013806B46D4E0C046DE0300008B3D4800AB
:10165000B41000003C67011030140000B610000008
:10166000FA0300004F4F2F00B81000004C67011024
:101670002C14000014040000BA100000160400002E
:10168000BC1000005C67011028140000BE100000B0
:1016900032040000D1CE00006C6701102414000059
:1016A0004C040000C21000004E040000D30094005F
:1016B000C41000007C670110C61000006A0400001E
:1016C0009314FF00C8100000886701101C1400006C
:1016D00084040000CA10000086040000FFBF000060
:1016E000CC1000009467011018140000CE10000008
:1016F000A204000069696900D0100000A067011011
:1017000014140000BC040000D2100000BE0400004D
:10171000D4100000A867011010140000D6100000BB
:10172000DA040000FF901E00D8100000B06701101E
:101730000C140000F4040000DA100000F6040000AD
:101740002222B200DC100000BC6701100814000067
:10175000DE10000012050000F0FAFF00C86701105B
:1017600004140000140500002C050000E210000025
:101770002E050000228B2200E4100000D467011027
:10178000E61000004A050000FF00FF00E81000001E
:10179000E0670110FC1300004C0500006405000028
:1017A000EA10000066050000DCDCDC00EC10000044
:1017B000E8670110F8130000EE1000008205000039
:1017C000FFF8F800F0100000F4670110F4130000B7
:1017D000840500009C050000F21000009E0500003A
:1017E00000D7FF00F410000000680110F0130000A3
:1017F000F64A9B181B786A46F54952181370F5494A
:10180000F548684402F04AF9F449F54A6A44F54853
:101810006844FEF7E7FE6B46EF4A9B181B886A4652
:10182000F149521813806B46F04A9B181B786A46A0
:10183000EF4952181370EF4C2100EF48684402F052
:101840002DF9EE49EE4A6A44BB20C0006844FEF719
:10185000C9FE6B46E84A9B181B886A46BE21C90030
:10186000521813806B46E74A9B181B786A46E64974
:10187000521813708021090288204001684402F048
:101880000DF9E249E24A6A44E2486844FEF7AAFEDA
:101890006B46882252019B181B886A46DE49521803
:1018A00013806B46DD4A9B181B786A46DC49521848
:1018B0001370DC49DC48684402F0F0F8DB499F22F1
:1018C00052016A44C220C0006844FEF78BFE6B469A
:1018D000D54A9B181B886A46C521C9005218138037
:1018E0006B46D34A9B181B786A46D249521813702C
:1018F0002100D148684402F0D1F8D049D04A6A4466
:10190000D0486844FEF76EFE6B46CB4A9B181B8896
:101910006A46CD49521813806B46CC4A9B181B78F7
:101920006A46CB4952181370CA49CB48684402F042
:10193000B5F8CA49CA4A6A44C920C0006844FEF7DB
:1019400051FE6B46C44A9B181B886A46CC21C900CD
:10195000521813806B46C34A9B181B786A46C249CB
:1019600052181370C149C248684402F097F8C1493F
:10197000C14A6A44C1486844FEF734FE6B46BC4A1B
:101980009B181B886A46BE49521813806B46BD4A95
:101990009B181B786A46BC4952181370BB49BC4857
:1019A000684402F07BF8BB49BB4A6A44D020C000BF
:1019B0006844FEF717FE6B46B54A9B181B886A46BB
:1019C000D321C900521813806B46B44A9B181B7868
:1019D0006A46B34952181370B249B348684402F0DA
:1019E0005DF8B249B24A6A44B2486844FEF7FAFD6B
:1019F0006B46AD4A9B181B886A46AF495218138044
:101A00006B46AE4A9B181B786A46AD495218137054
:101A1000AC49AD48684402F041F8AC49AC4A6A446C
:101A2000D720C0006844FEF7DDFD6B46A64A9B1830
:101A30001B886A46DA21C900521813806B46A54AF2
:101A40009B181B786A46A44952181370A349892031
:101A50004001684402F022F8A149A24A6A44A2481F
:101A60006844FEF7BFFD6B46892252019B181B8814
:101A70006A469E49521813806B469D4A9B181B78F4
:101A80006A469C49521813709B499C48684402F06E
:101A900005F89B499E2252016A44DE20C00068443A
:101AA000FEF7A0FD6B46954A9B181B886A46E1210C
:101AB000C900521813806B46924A9B181B786A46DD
:101AC00091495218137091499148684401F0E6FF1A
:101AD0009049914A6A4491486844FEF783FD6B46F9
:101AE0008B4A9B181B886A468D49521813806B4697
:101AF0008C4A9B181B786A468B49521813708B4985
:101B00008B48684401F0CAFF8A498B4A6A44E52041
:101B1000C0006844FEF766FD6B46854A9B181B882B
:101B20006A46E821C900521813806B46834A9B1805
:101B30001B786A4682495218137082498248684469
:101B400001F0ACFF8149824A6A4482486844FEF74A
:101B500049FD6B467C4A9B181B886A467E49521891
:101B600013806B467D4A9B181B786A467C49521845
:101B700013707C497C48684401F090FF7B497C4AA3
:101B80006A44EC20C0006844FEF72CFD6B46764AA0
:101B90009B181B886A46EF21C900521813806B46B8
:101BA000744A9B181B786A4673495218137073491C
:101BB0007348684401F072FF7249734A6A4473487B
:101BC0006844FEF70FFD6B46E2E0C046F6100000E9
:101BD000BA05000020A5DA00F81000007C6A0110A8
:101BE000EC130000BC050000D4050000FA10000052
:101BF000D605000080808000FC100000B86601104F
:101C0000E8130000FE100000F2050000FC6801105F
:101C1000E4130000F40500000C06000002110000AF
:101C20000E0600002FFFAD0004110000086801102F
:101C3000061100002A06000008110000D0660110FD
:101C4000DC1300002C060000440600000A1100000E
:101C500046060000F0FFF0000C11000014680110AF
:101C6000D81300000E11000062060000B469FF00E6
:101C70001011000020680110D41300006406000059
:101C80007C060000121100007E0600005C5CCD00A6
:101C90001411000028680110D01300001611000074
:101CA0009A06000082004B001811000034680110F1
:101CB000CC1300009C060000B40600001A110000BE
:101CC000B6060000F0FFFF001C1100003C68011088
:101CD000C81300001E110000D20600008CE6F000C0
:101CE000DC660110C4130000D4060000EC060000FE
:101CF00022110000EE060000FAE6E60024110000C2
:101D000044680110261100000A070000F5F0FF00EA
:101D10002811000050680110BC1300000C070000DF
:101D2000240700002A1100002607000000FC7C00A8
:101D30002C11000060680110B81300002E11000083
:101D400042070000CDFAFF00301100006C6801105E
:101D5000B4130000440700005C07000032110000CB
:101D60005E070000E6D8AD00341100007C68011069
:101D7000B0130000361100007A0700008080F000E8
:101D80003811000088680110AC1300007C070000C7
:101D9000F54A9B181B886A46F449521813806B4613
:101DA000F34A9B181B786A46F24952181370F2499D
:101DB000F248684401F072FEF149F24A6A44F320A5
:101DC000C0006844FEF70EFC6B46EC4A9B181B886B
:101DD0006A46F621C900521813806B46EA4A9B18DE
:101DE0001B786A46E94952181370E9498A20400174
:101DF000684401F053FEE749E74A6A44E74868440B
:101E0000FEF7F0FB6B468A2252019B181B886A463C
:101E1000E349521813806B46E24A9B181B786A46C6
:101E2000E14952181370E14C2100E148684401F087
:101E300035FEE0499D2252016A44FA20C000684400
:101E4000FEF7D0FB6B46DA4A9B181B886A46FD21D9
:101E5000C900521813806B46D74A9B181B786A46F4
:101E6000D64952181370D649D648684401F016FE78
:101E7000D549D64A6A44D6486844FEF7B3FB6B4658
:101E8000D04A9B181B886A46D249521813806B4669
:101E9000D14A9B181B786A46D0495218137021000A
:101EA000CF48684401F0FAFDCE49CF4A6A44CF4892
:101EB0006844FEF797FB6B46C94A9B181B886A4625
:101EC00082210901521813806B46C94A9B181B785E
:101ED0006A46C84952181370C749C848684401F097
:101EE000DDFDC749C74A6A44C7486844FEF77AFB24
:101EF0006B46C24A9B181B886A46C4495218138015
:101F00006B46C34A9B181B786A46C2495218137025
:101F1000C149C248684401F0C1FDC149C14A6A448F
:101F2000842000016844FEF75DFB6B46BB4A9B18AA
:101F30001B886A46BC49521813806B46BB4A9B18E3
:101F40001B786A46BA4952181370BA49BA486844AD
:101F500001F0A4FDB949BA4A6A44BA486844FEF798
:101F600041FB6B46B44A9B181B886A46B649521817
:101F700013806B46B54A9B181B786A46B4495218C1
:101F80001370B449B448684401F088FDB349B44AB9
:101F90006A44B4486844FEF725FB6B46AE4A9B187A
:101FA0001B886A4689210901521813806B46AE4A84
:101FB0009B181B786A46AD4952181370AC4C21002F
:101FC0008B204001684401F069FDAA49AA4A6A448D
:101FD000AA486844FEF706FB6B468B2252019B1809
:101FE0001B886A46A649521813806B46A54A9B185F
:101FF0001B786A46A449521813702100A34868440C
:1020000001F04CFDA2499C2252016A448B20000140
:102010006844FEF7E7FA6B469C4A9B181B886A46A1
:102020009C49521813806B469B4A9B181B786A4642
:102030009A49521813709A499A48684401F02EFD43
:1020400099499A4A6A449A486844FEF7CBFA6B4623
:10205000944A9B181B886A469649521813806B460F
:10206000954A9B181B786A469449521813709449F4
:102070009448684401F012FD9349944A6A44944894
:102080006844FEF7AFFA6B468E4A9B181B886A4677
:1020900090210901521813806B468E4A9B181B78B9
:1020A0006A468D4952181370FF2109028B48684413
:1020B00001F0F4FC8A498B4A6A448B486844FEF775
:1020C00091FA6B46854A9B181B886A4687495218C5
:1020D00013806B46864A9B181B786A4685495218BE
:1020E000137085498548684401F0D8FC8449854AC5
:1020F0006A44922000016844FEF774FA6B467F4AF6
:102100009B181B886A468049521813806B467F4A89
:102110009B181B786A467E49521813707D497E4889
:10212000684401F0BBFC7D497D4A6A447D486844AF
:10213000FEF758FA6B46784A9B181B886A467A491C
:10214000521813806B46794A9B181B786A46784967
:102150005218137077497848684401F09FFC77491A
:10216000774A6A44EEE0C046381100009407000048
:102170003A11000096070000FFFFE0003C1100004C
:1021800094680110A81300003E110000B20700007F
:10219000D2FAFA00A0680110A4130000B4070000EE
:1021A000CC07000042110000CE070000D3D3D300BB
:1021B00044110000B868011046110000EA07000051
:1021C00090EE900048110000C46801109C130000BC
:1021D000EC070000040800004A1100000608000097
:1021E0004C110000D068011098130000080800008E
:1021F0004E11000022080000C1B6FF00501100007F
:10220000DC68011094130000240800003C08000062
:10221000521100003E0800007AA0FF005411000097
:10222000E8680110901300005808000056110000E3
:102230005A080000AAB2200058110000F4680110EA
:102240008C1300005C080000740800005A110000A4
:1022500076080000FACE87005C11000004690110C6
:1022600088130000780800005E110000920800004A
:102270009988770014690110841300009408000005
:10228000AC08000062110000AE08000064110000FC
:1022900024690110C808000066110000CA08000087
:1022A000DEC4B00068110000346901107C13000026
:1022B000CC080000E40800006A110000E6080000F5
:1022C000E0FFFF006C11000044690110781300006A
:1022D000E80800006E110000020900007011000003
:1022E0005069011074130000040900001C0900006B
:1022F000721100001E09000032CD3200741100007E
:1023000058690110701300003809000076110000B0
:102310003A090000E6F0FA00781100006469011043
:102320006C1300003C090000540900007A11000001
:1023300056090000FF00FF007C110000E866011054
:1023400068130000F5486844FEF74CF96B46F44A00
:102350009B181B886A4697210901521813806B4607
:10236000F04A9B181B786A46EF4952181370802177
:1023700009048C204001684401F090FBEB49EC4AD1
:102380006A44EC486844FEF72DF96B468C225201F2
:102390009B181B886A46E849521813806B46E74A27
:1023A0009B181B786A46E64952181370E549E648BF
:1023B000684401F073FBE5499B2252016A4499206D
:1023C00000016844FEF70EF96B46DF4A9B181B8834
:1023D0006A46DF49521813806B46DE4A9B181B7809
:1023E0006A46DD4952181370CD21DC48684401F07B
:1023F00055FBDB49DB4A6A44DB486844FEF7F2F8E8
:102400006B46D64A9B181B886A46D84952181380D7
:102410006B46D74A9B181B786A46D64952181370E8
:10242000D549D648684401F039FBD549D54A6A44B4
:10243000D5486844FEF7D6F86B46D04A9B181B88EF
:102440006A469E210901521813806B46CF4A9B1899
:102450001B786A46CE4952181370CE49CE4868445C
:1024600001F01CFBCD49CE4A6A44CE486844FEF7D1
:10247000B9F86B46C84A9B181B886A46CA49521865
:1024800013806B46C94A9B181B786A46C849521884
:102490001370C849C848684401F000FBC749C84ADE
:1024A0006A44A02000016844FEF79CF86B46C24ACB
:1024B0009B181B886A46C349521813806B46C24A50
:1024C0009B181B786A46C14952181370C049C1480D
:1024D000684401F0E3FAC049C04A6A44C04868440D
:1024E000FEF780F86B46BB4A9B181B886A46BD49BD
:1024F000521813806B46BC4A9B181B786A46BB492E
:1025000052181370BA49BB48684401F0C7FABA4977
:10251000BA4A6A44BA486844FEF764F86B46B54A5A
:102520009B181B886A46A5210901521813806B4627
:10253000B44A9B181B786A46B34952181370B349C2
:102540008D204001684401F0A9FAB149B14A6A44BA
:10255000B1486844FEF746F86B468D2252019B183D
:102560001B886A46AD49521813806B46AC4A9B18CB
:102570001B786A46AB4952181370AB49AB486844A4
:1025800001F08CFAAA499A2252016A44A72000015C
:102590006844FEF727F86B46A44A9B181B886A46D6
:1025A000A449521813806B46A34A9B181B786A46AD
:1025B000A24952181370A249A248684401F06EFA69
:1025C000A149A24A6A44A2486844FEF70BF86B4648
:1025D0009C4A9B181B886A469E49521813806B467A
:1025E0009D4A9B181B786A469C49521813709C4957
:1025F0009C48684401F052FA9B499C4A6A449C48B2
:102600006844FDF7EFFF6B46964A9B181B886A46A5
:10261000AC210901521813806B46964A9B181B780F
:102620006A4695495218137094499548684401F0D8
:1026300035FA9449944A6A4494486844FDF7D2FFB5
:102640006B468F4A9B181B886A4691495218138023
:102650006B46904A9B181B786A468F495218137034
:102660008E498F48684401F019FA8E498E4A6A44AF
:10267000AE2000016844FDF7B5FF6B46884A9B1801
:102680001B886A468949521813806B46884A9B18F2
:102690001B786A46874952181370874987486844EF
:1026A00001F0FCF98649874A6A4487486844FDF787
:1026B00099FF6B46814A9B181B886A4683495218CA
:1026C00013806B46824A9B181B786A4681495218D0
:1026D000137080218048684401F0E0F97F49804A06
:1026E0006A4480486844FDF77DFF6B467A4A9B1830
:1026F0001B886A46B3210901521813806B467A4A37
:102700009B181B786A4679495218137078498E20B5
:102710004001684401F0C2F9ECE0C04658090000ED
:102720007C1100007E110000720900006C6901102C
:1027300064130000740900008C090000821100007D
:102740008E090000AACD6600841100007469011092
:10275000A809000086110000AA09000088110000E5
:10276000886901105C130000AC090000C409000076
:102770008A110000C6090000D355BA008C11000070
:102780009469011058130000C80900008E11000060
:10279000E2090000DB70930090110000A4690110B1
:1027A00054130000E4090000FC090000921100002D
:1027B000FE09000071B33C0094110000B4690110DF
:1027C00050130000180A0000961100001A0A0000B9
:1027D000EE687B0098110000C46901104C130000E2
:1027E0001C0A0000340A00009A110000360A00009A
:1027F0009AFA00009C110000D469011048130000EF
:10280000380A00009E110000520A0000CCD1480096
:10281000E869011044130000540A00006C0A00002B
:10282000A21100006E0A00008515C700A411000067
:10283000F8690110880A0000A61100008A0A000049
:1028400070191900A8110000086A01103C1300005B
:102850008C0A0000A40A0000AA110000A60A0000C9
:10286000FAFFF500AC110000186A011038130000DF
:10287000A80A0000AE110000C20A0000E1E4FF0057
:10288000B0110000246A011034130000C40A0000D3
:10289000DC0A0000B2110000DE0A0000B5E4FF000F
:1028A000B4110000306A011030130000F80A000073
:1028B000B6110000FA0A0000ADDEFF00B8110000FA
:1028C0003C6A01102C130000FC0A0000140B0000ED
:1028D000BA110000160B0000BC110000486A01107C
:1028E00028130000180B0000BE110000320B00007E
:1028F000E6F5FD00F449F54A6A44F5486844FDF7F9
:1029000071FE6B468E2252019B181B886A46F14964
:10291000521813806B46F04A9B181B786A46EF49A1
:1029200052181370EE49EF48684401F0B7F8EE49C9
:10293000992252016A44B52000016844FDF752FE15
:102940006B46E84A9B181B886A46E8495218138070
:102950006B46E74A9B181B786A46E6495218137083
:10296000E549E648684401F099F8E549E54A6A44D2
:10297000E5486844FDF736FE6B46E04A9B181B8825
:102980006A46E249521813806B46E14A9B181B784D
:102990006A46E04952181370DF49E048684401F084
:1029A0007DF8DF49DF4A6A44DF486844FDF71AFED4
:1029B0006B46DA4A9B181B886A46BA2109015218ED
:1029C00013806B46D94A9B181B786A46D84952181F
:1029D0001370D849D848684401F060F8D749D84AFC
:1029E0006A44D8486844FDF7FDFD6B46D24A9B18FF
:1029F0001B886A46D449521813806B46D34A9B18E9
:102A00001B786A46D24952181370D249D24868449A
:102A100001F044F8D149D24A6A44BC20000168441C
:102A2000FDF7E0FD6B46CC4A9B181B886A46CD49F2
:102A3000521813806B46CC4A9B181B786A46CB49C8
:102A400052181370CA49CB48684401F027F8CA49A4
:102A5000CA4A6A44CA486844FDF7C4FD6B46C54A81
:102A60009B181B886A46C749521813806B46C64A92
:102A70009B181B786A46C54952181370C449C5484B
:102A8000684401F00BF8C449C44A6A44C448684425
:102A9000FDF7A8FD6B46BF4A9B181B886A46C121FB
:102AA0000901521813806B46BE4A9B181B786A4670
:102AB000BD4952181370BD498F204001684400F091
:102AC000EDFFBB49BB4A6A44BB486844FDF78AFD39
:102AD0006B468F2252019B181B886A46B7495218D1
:102AE00013806B46B64A9B181B786A46B549521844
:102AF0001370B549B548684400F0D0FFB449982236
:102B000052016A44C32000016844FDF76BFD6B4627
:102B1000AE4A9B181B886A46AE49521813806B4612
:102B2000AD4A9B181B786A46AC4952181370AC49E1
:102B3000AC48684400F0B2FFAB49AC4A6A44AC48C8
:102B40006844FDF74FFD6B46A64A9B181B886A46F2
:102B5000A849521813806B46A74A9B181B786A46EF
:102B6000A64952181370A649A648684400F096FF7B
:102B7000A549A64A6A44A6486844FDF733FD6B465A
:102B8000A04A9B181B886A46C82109015218138065
:102B90006B46A04A9B181B786A469F4952181370CF
:102BA0009E499F48684400F079FF9E499E4A6A44C6
:102BB0009E486844FDF716FD6B46994A9B181B8892
:102BC0006A469B49521813806B469A4A9B181B7899
:102BD0006A4699495218137098499948684400F018
:102BE0005DFF9849984A6A44CA2000016844FDF78D
:102BF000F9FC6B46924A9B181B886A469349521807
:102C000013806B46924A9B181B786A46914952186A
:102C1000137091499148684400F040FF904903AC1B
:102C2000904A6A4490486844FDF7DCFC6B468B4A46
:102C30009B181B886A468D49521813806B468C4A34
:102C40009B181B786A468B49521813708A498B4827
:102C5000684400F023FF8A498A4A6A448A486844E3
:102C6000FDF7C0FC6B46854A9B181B886A46CF213E
:102C70000901521813806B46844A9B181B786A46D8
:102C8000834952181370834990204001684400F032
:102C900005FF8149814A6A4481486844FDF7A2FCE6
:102CA0006B46902252019B181B886A467D49521838
:102CB00013806B467C4A9B181B786A467B495218E6
:102CC0001370FF210904F3E0506A0110241300007F
:102CD000340B00004C0B0000C21100004E0B000032
:102CE00000808000C4110000586A0110680B0000C9
:102CF000C61100006A0B0000238E6B00C811000093
:102D0000606A01101C1300006C0B0000840B0000B3
:102D1000CA110000860B000000A5FF00CC110000C6
:102D20000467011018130000880B0000CE1100008A
:102D3000A20B00000045FF00D01100006C6A0110DA
:102D400014130000A40B0000BC0B0000D211000003
:102D5000BE0B0000D670DA00D4110000106701101D
:102D600010130000D80B0000D6110000DA0B000091
:102D7000AAE8EE00D8110000786A01100C130000D8
:102D8000DC0B0000F40B0000DA110000F60B000071
:102D900098FB9800DC110000886A011008130000FD
:102DA000F80B0000DE110000120C0000EEEEAF0088
:102DB000946A011004130000140C00002C0C000095
:102DC000E21100002E0C00009370DB00E411000003
:102DD000A46A0110480C0000E61100004A0C000033
:102DE000D5EFFF00E8110000B46A0110FC120000EA
:102DF0004C0C0000640C0000EA110000660C00009E
:102E0000B9DAFF00EC110000C06A0110F8120000EE
:102E1000680C0000EE110000820C00003F85CD0020
:102E2000F0110000CC6A0110F4120000840C0000C4
:102E30009C0C0000F21100009E0C0000CBC0FF00B3
:102E4000F41100008C670110F0120000B80C0000B3
:102E5000F6110000BA0C0000DDA0DD00F811000042
:102E6000D46A0110EC120000BC0C0000D40C00006D
:102E7000FA110000D60C0000E6E0B000FC110000E2
:102E8000DC6A0110E8120000D80C0000FE110000FE
:102E9000F20C000080008000E86A0110E4120000DB
:102EA000F40C00000C0D0000021200000E0D0000DA
:102EB000F448684400F0F2FDF349972252016A4455
:102EC000D12000016844FDF78DFB6B46ED4A9B184D
:102ED0001B886A46ED49521813806B46EC4A9B18D2
:102EE0001B786A46EB4952181370EB49EB4868446B
:102EF00000F0D4FDEA49EB4A6A44EB486844FDF728
:102F000071FB6B46E54A9B181B886A46E7495218D5
:102F100013806B46E64A9B181B786A46E5495218AF
:102F20001370E549E548684400F0B8FDE449E54A16
:102F30006A44E5486844FDF755FB6B46DF4A9B1839
:102F40001B886A46D6210901521813806B46DF4A56
:102F50009B181B786A46DE4952181370DD49DE481B
:102F6000684400F09BFDDD49DD4A6A44DD48684461
:102F7000FDF738FB6B46D84A9B181B886A46DA492E
:102F8000521813806B46D94A9B181B786A46D84959
:102F900052181370D749D848684400F07FFDD749CC
:102FA000D74A6A44D82000016844FDF71BFB6B46F2
:102FB000D14A9B181B886A46D249521813806B4627
:102FC000D14A9B181B786A46D04952181370D049D1
:102FD000D048684400F062FDCF49D04A6A44D048E6
:102FE0006844FDF7FFFA6B46CA4A9B181B886A467D
:102FF000CC49521813806B46CB4A9B181B786A4603
:10300000CA4952181370CA49CA48684400F046FDBC
:10301000C949CA4A6A44CA486844FDF7E3FA6B469C
:10302000C44A9B181B886A46DD2109015218138087
:103030006B46C44A9B181B786A46C34952181370E2
:10304000C24991204001684400F028FDC049C14AAE
:103050006A44C1486844FDF7C5FA6B4691225201A3
:103060009B181B886A46BD49521813806B46BC4AA0
:103070009B181B786A46BB4952181370BA49BB4863
:10308000684400F00BFDBA49962252016A44DF20E1
:1030900000016844FDF7A6FA6B46B44A9B181B88EA
:1030A0006A46B449521813806B46B34A9B181B7882
:1030B0006A46B24952181370B149B248684400F0E8
:1030C000EDFCB149B14A6A44B1486844FDF78AFA57
:1030D0006B46AC4A9B181B886A46AE49521813804F
:1030E0006B46AD4A9B181B786A46AC495218137060
:1030F000AB49AC48684400F0D1FCAB49AB4A6A44E8
:10310000AB486844FDF76EFA6B46A64A9B181B88CD
:103110006A46E4210901521813806B46A54A9B18A0
:103120001B786A46A44952181370A449A4486844FD
:1031300000F0B4FCA349A44A6A44A4486844FDF7DB
:1031400051FA6B469E4A9B181B886A46A049521842
:1031500013806B469F4A9B181B786A469E495218FB
:1031600013709E4D29009E48684400F097FC9D49CD
:103170009D4A6A44E62000016844FDF733FA6B4635
:10318000974A9B181B886A469849521813806B46C9
:10319000974A9B181B786A46964952181370290063
:1031A0009548684400F07AFC9449954A6A449548E9
:1031B0006844FDF717FA6B468F4A9B181B886A46CE
:1031C0009149521813806B46904A9B181B786A46A7
:1031D0008F49521813708F498F48684400F05EFC85
:1031E0008E498F4A6A448F486844FDF7FBF96B4665
:1031F000894A9B181B886A46EB21090152181380E3
:103200006B46894A9B181B786A4688495218137086
:10321000874992204001684400F040FC8549864A75
:103220006A4486486844FDF7DDF96B4692225201F4
:103230009B181B886A468249521813806B46814A44
:103240009B181B786A468049521813707F49804842
:10325000684400F023FC7F49952252016A44ED2026
:1032600000016844FDF7BEF96B46794A9B181B883C
:103270006A467949521813806B46784A9B181B7826
:103280006A46EDE0041200001C670110280D0000E2
:10329000061200002A0D00008F8FBC0008120000EB
:1032A000F06A0110DC1200002C0D0000440D00003B
:1032B0000A120000460D0000E16941000C120000F6
:1032C000FC6A0110D8120000480D00000E12000028
:1032D000620D000013458B0010120000086B0110F6
:1032E000D4120000640D00007C0D000012120000DA
:1032F0007E0D00007280FA00141200002467011095
:10330000D0120000980D0000161200009A0D000067
:1033100060A4F40018120000146B0110CC1200001D
:103320009C0D0000B40D00001A120000B60D000044
:10333000578B2E001C12000030670110C8120000CD
:10334000B80D00001E120000D20D0000EEF5FF00C7
:10335000206B0110C4120000D40D0000EC0D000021
:1033600022120000EE0D00002D52A00024120000D9
:103370002C6B0110080E0000261200000A0E00003F
:10338000C0C0C00028120000346B0110BC12000045
:103390000C0E0000240E00002A120000260E000071
:1033A000EBCE87002C12000098670110B8120000C5
:1033B000280E00002E120000420E0000CD5A6A00B6
:1033C0003012000040670110B4120000440E0000EB
:1033D0005C0E0000321200005E0E00009080700053
:1033E0003412000050670110B0120000780E000087
:1033F000361200007A0E00003812000060670110DB
:10340000AC1200007C0E0000940E00003A12000086
:10341000960E0000FAFAFF003C1200003C6B01100F
:10342000A8120000980E00003E120000B20E00002C
:103430007FFF0000446B0110A4120000B40E0000D6
:10344000CC0E000042120000CE0E0000B4824600F6
:1034500044120000506B0110E80E000046120000FC
:10346000B14952181370B149B148684400F016FBD5
:10347000B049B14A6A44B1486844FDF7B3F86B46B5
:10348000AB4A9B181B886A46AD49521813806B469D
:10349000AC4A9B181B786A46AB4952181370AB496B
:1034A000AB48684400F0FAFAAA49AB4A6A44AB4810
:1034B0006844FDF797F86B46A54A9B181B886A4637
:1034C000F2210901521813806B46A54A9B181B78FC
:1034D0006A46A44952181370A349A448684400F0EE
:1034E000DDFAA349A34A6A44A3486844FDF77AF881
:1034F0006B469E4A9B181B886A46A0495218138047
:103500006B469F4A9B181B786A469E495218137057
:103510009D499E48684400F0C1FA9D499D4A6A440D
:10352000F42000016844FDF75DF86B46974A9B184C
:103530001B886A469849521813806B46974A9B1815
:103540001B786A4696495218137096499648684403
:1035500000F0A4FA9549964A6A4496486844FDF7F3
:1035600041F86B46904A9B181B886A46924952184C
:1035700013806B46914A9B181B786A4690495218F3
:10358000137090499048684400F088FA8F49904A37
:103590006A4490486844FDF725F86B468A4A9B18B0
:1035A0001B886A46F9210901521813806B468A4A22
:1035B0009B181B786A4689495218137088499320D2
:1035C0004001684400F06AFA8649874A6A4487489D
:1035D0006844FDF707F86B46932252019B181B883D
:1035E0006A468349521813806B46824A9B181B789F
:1035F0006A4681495218137080498148684400F036
:103600004DFA8049942252016A44FB20000168442B
:10361000FCF7E8FF6B467A4A9B181B886A467A4992
:10362000521813806B46794A9B181B786A46784972
:103630005218137077497848684400F02FFA774998
:10364000774A6A4477486844FCF7CCFF6B46724A75
:103650009B181B886A467449521813806B46734A3C
:103660009B181B786A467249521813707149724848
:10367000684400F013FA7149714A6A447148684419
:10368000FCF7B0FF6B466C4A9B181B886A4680218A
:103690004901521813806B466B4A9B181B786A4687
:1036A0006A49521813706A496A48684400F0F6F98A
:1036B00069496A4A6A446A486844FCF793FF6B4662
:1036C000644A9B181B886A466649521813806B46E9
:1036D000654A9B181B786A46644952181370812307
:1036E0005B016B441C6093225A6001AA21CB21C26A
:1036F0005F48002303718360021DC2600261436161
:10370000812252016A442100FDF75DF881246401A1
:103710006C4403E01C3C2000FCF7FCFD03AB9C4226
:10372000F8D1544B9D4430BDEA0E00008CB4D20059
:10373000481200005C6B01109C120000EC0E0000AF
:10374000040F00004A120000060F000080800000F5
:103750004C120000606B011098120000080F00006E
:103760004E120000220F0000D8BFD80050120000F7
:10377000686B011094120000240F00003C0F000041
:10378000521200003E0F00004763FF005412000079
:10379000706B011090120000580F000056120000CC
:1037A0005A0F0000D0E0400058120000986A011043
:1037B0008C1200005C0F0000740F00005A12000011
:1037C000760F0000EE82EE005C1200002866011009
:1037D00088120000780F00005E120000920F0000B7
:1037E000B3DEF500786B011084120000940F000026
:1037F000AC0F000062120000AE0F0000FFFFFF00E0
:1038000064120000806B0110C80F000066120000F7
:10381000CA0F0000F5F5F50068120000886B011072
:103820007C120000CC0F0000E40F00006A120000C0
:10383000E60F000000FFFF006C120000946B011007
:1038400078120000E80F00006E1200000210000065
:1038500032CD9A00701200009C6B011074120000AF
:10386000041000001C100000721200001E10000066
:103870008C190020C414000010B5FCF7B7FF10BD70
:1038800070B506000D1C081C07F04AFB84B2002C22
:1038900012D0200007F01CFB011C281C07F0EFFAD7
:1038A0008721C90507F00BFB07F03AFBC3B21B02E7
:1038B00024041C43346070BD0023F8E770B5040095
:1038C0000D001022002107F0FBFB80235B02236028
:1038D000F8235B0263608023DB02A360C0231B0329
:1038E000A3606B1CED011B031D43656080239B05DA
:1038F000E360024B1D406560200070BDFFFFFF9F2D
:1039000070B504000D001022002107F0D9FB8023C0
:103910005B022360F8235B0263608023DB02A36009
:10392000C0231B03A360AB1CED011B031D4365609B
:1039300080239B05E360024B1D406560200070BD45
:10394000FFFFFF9FF0B5DE464F464646C0B584B048
:1039500004000E00170098460CAB04CB93461B786E
:103960000EAA127891460F9D002B00D180E03900FD
:103970006846FFF7C5FF039A424B1A40109B1A4353
:1039800080235B031900114303913F490A4013430D
:10399000119AD203134303933C4A1340AA021343E0
:1039A0000393029A3A4B1A4080239B0213434246E8
:1039B0005206F82189050A4013430293354A134001
:1039C000802252021A4343461B05F82149040B404A
:1039D0001343029359466846FFF752FF0123984666
:1039E0001A00AA4010998B401A43934613000022F4
:1039F0003100200007F06AFF4346119A9340984631
:103A00005B46424613435A463100200007F0ACFFA4
:103A1000214B9C4231D007239B465946109803F016
:103A20009DFC5946119803F099FC5946280003F073
:103A300095FC4B46002B23D00121280003F0A6FC67
:103A40002200383280239B01134342461A606B46A2
:103A50003A003100200007F0D5FF23680122B24070
:103A60001343236004B0E0BCBB46B146A846F0BD9A
:103A700039006846FFF722FF7DE706239B46CCE727
:103A80000021DAE7E0FF0FFCFF7FF0FFFF83FFFF7D
:103A9000FFFFF5C1FFFF0AFE000020500B0C037072
:103AA0000B0A43708170704702000078000453785D
:103AB0001B021843937818437047000070B50C231D
:103AC0000360013B436011338360133BC360773372
:103AD0000322C2503C4B02008432190070C970C2EC
:103AE00070C970C270C970C270C970C270C970C22A
:103AF00070C970C270C970C270C970C2603332CBF5
:103B000032C232CB32C232CB32C232CB32C22F4B74
:103B10001900103170C970C270C970C270C970C20A
:103B200070C970C21900403170C970C270C970C2CA
:103B300070C970C270C970C2703332CB32C232CB1E
:103B400032C232CB32C232CB32C2214B19002031C9
:103B500070C970C219002C3170C970C21900383197
:103B600070C970C21900443170C970C21900503157
:103B700070C970C219005C3170C970C21900683117
:103B800070C970C2743332CB32C2124B81229200A0
:103B90008218190070C970C270C970C230C930C2B1
:103BA00089229200821870C970C270C970C230C96F
:103BB00030C2912292008218403332CB32C232CBD3
:103BC00032C212CB12C270BD148201109482011055
:103BD000148301109483011070B586B00400743012
:103BE0000C22002107F06CFA0B4860670B4907F0C4
:103BF00051FE0200A368E5682668A16F606F059614
:103C000004950393002302930193054B009308232B
:103C1000FFF798FE06B070BD00002050088201102A
:103C20000000FA4170B505000C0016001800DF2AEC
:103C30000DD8FFF739FF202252423243D2B20002A0
:103C40001043182C09D8A4002D19286170BD054B0C
:103C5000054A06484B2105F0AFF805481922210016
:103C600008F086F8A86B0110C46B0110186C0110E5
:103C7000546C011010B59CB004006D220021684600
:103C800007F01EFA0023009321001031642201A8DE
:103C900007F01CFA052200211AA807F011FA2000EB
:103CA00074306D22694612F04BFC1CB010BDF8B5A3
:103CB00005000F001600002406E033003A00210042
:103CC0002800FFF7AFFF0134182CF6D92800FFF7C2
:103CD000D1FFF8BDF0B583B00700019116001D00BB
:103CE00001AC02AB9C4201D103B0F0BD02CC2B0071
:103CF00032003800FFF796FFF3E784B0F8B505000F
:103D00000791089209930FAB1F78109E07AC05E04E
:103D100002CC33003A002800FFF784FF0FAB9C422F
:103D2000F6D1F8BC08BC04B0184784B0F8B505005B
:103D300007910892099313AB1F78149E07AC05E016
:103D400002CC33003A002800FFF76CFF13AB9C4213
:103D5000F6D1F8BC08BC04B01847F0B585B0050032
:103D60000191029203930AAB1F780B9E01AC05E010
:103D700002CC33003A002800FFF754FF04AB9C420A
:103D8000F6D105B0F0BD000030B589B004000D00DB
:103D90000B4907AA01A8FCF725FC0A4801A9FCF772
:103DA0000FFB0300002229002000FFF73BFF01A8C2
:103DB000FCF7B0FA2000FFF75DFF09B030BDC04648
:103DC000806B0110A419002010B588B004000949C7
:103DD00007AA01A8FCF706FC074801A9FCF7F0FABE
:103DE00002001F212000FFF762FF01A8FCF792FAF2
:103DF00008B010BD806B0110A419002010B588B068
:103E00000400094907AA01A8FCF7ECFB074801A92F
:103E1000FCF7D6FA020000212000FFF748FF01A8B6
:103E2000FCF778FA08B010BD0C660110A419002048
:103E300030B58FB00500002419E01B490DAA07A872
:103E4000FCF7D0FB194807A9FCF7BAFA03001F22B8
:103E500021002800FFF7E6FE07A8FCF75BFA280020
:103E6000FFF708FF4E20FF3004F0DBF90134182C77
:103E700014D8002CE1D00E4906AA6846FCF7B2FB24
:103E80000A486946FCF79CFA0300611E00222800DC
:103E9000FFF7C8FE6846FCF73DFACEE71821280078
:103EA000FFF772FF0FB030BD806B0110A419002026
:103EB0000C660110F0B5DE4657464E464546E0B565
:103EC000FDB00400F74912AA0CA8FCF78BFBF64DD5
:103ED0000CA92800FCF774FA03008022A1586B3A61
:103EE0002000FFF7F7FE0CA8FCF714FAEF4F19AA11
:103EF000BB46390013A8FCF775FB13A92800FCF793
:103F00005FFA06901526059681239B009C46A444E3
:103F10000C33E3186A4683CB83C203CB03C28123ED
:103F20009B00E15863465A689B682000FFF7E5FE56
:103F300013A8FCF7EFF9DE4B20AA984619001AA83F
:103F4000FCF750FB1AA92800FCF73AFA06900596F0
:103F500089239B009C46A4440C33E3186A4683CB18
:103F600083C203CB03C289239B00E15863465A688E
:103F70009B682000FFF7C1FE1AA8FCF7CBF9CD4BD8
:103F800027AA9946190021A8FCF72CFB21A9280093
:103F9000FCF716FA0690059691239B009C46A444D4
:103FA0000C33E3186A4683CB83C203CB03C291234D
:103FB0009B00E15863465A689B682000FFF79DFE0E
:103FC00021A8FCF7A7F92000FFF754FEFA239B0075
:103FD0009A46180004F025F92EAA594628A8FCF79D
:103FE00001FB28A92800FCF7EBF90A9009962000AC
:103FF00084308446230090336A4683CB83C283CBCC
:1040000083C283CB83C28423E15863465A689B688A
:104010002000FFF78AFE28A8FCF77CF935AA49465C
:104020002FA8FCF7DFFA2FA92800FCF7C9F90A909E
:1040300009962000B43084462300C0336A4683CBFF
:1040400083C283CB83C283CB83C2B423E15863464C
:104050005A689B682000FFF768FE2FA8FCF75AF902
:104060002000FFF707FE504604F0DBF83CAA594653
:1040700036A8FCF7B7FA36A92800FCF7A1F90A9090
:10408000099620001530FF30844623002133FF338A
:104090006A4683CB83C283CB83C283CB83C28A230A
:1040A0005B00E15863465A689B682000FFF73DFEBD
:1040B00036A8FCF72FF943AA41463DA8FCF792FA2F
:1040C0003DA92800FCF77CF90A9009962000E4300D
:1040D00084462300F0336A4683CB83C283CB83C2FA
:1040E00083CB83C2E423E15863465A689B6820006F
:1040F000FFF71BFE3DA8FCF70DF92000FFF7BAFD06
:10410000504604F08EF84AAA594644A8FCF76AFAC9
:1041100044A92800FCF754F901900096DE235B00C7
:10412000E1582300BD33FF335A689B682000FFF736
:1041300014FE44A8FCF7EEF851AA41464BA8FCF740
:1041400051FA4BA92800FCF73BF901900096E423B3
:104150005B00E1582300C933FF335A689B68200095
:10416000FFF7FBFD4BA8FCF7D5F858AA494652A823
:10417000FCF738FA52A92800FCF722F901900096C2
:10418000D2235B00E1582300A533FF335A689B68B4
:104190002000FFF7E2FD52A8FCF7BCF846495FAAF1
:1041A00059A8FCF71FFA59A92800FCF709F9019052
:1041B0000096D8235B00E1582300B133FF335A68DF
:1041C0009B682000FFF7C9FD59A8FCF7A3F866AA71
:1041D000594660A8FCF706FA60A92800FCF7F0F839
:1041E00001900096EA235B00E1582300D533FF33AA
:1041F0005A689B682000FFF7B0FD60A8FCF78AF8BA
:104200006DAA414667A8FCF7EDF967A92800FCF7FD
:10421000D7F801900096F0235B00E1582300E133CA
:10422000FF335A689B682000FFF797FD67A8FCF7EB
:1042300071F874AA41466EA8FCF7D4F96EA928005B
:10424000FCF7BEF801900D3E0096F6235B00E158A6
:104250002300ED33FF335A689B682000FFF77DFD94
:104260006EA8FCF757F87BAA594675A8FCF7BAF96F
:1042700075A92800FCF7A4F801900096FC235B00C8
:10428000E1582300F933FF335A689B682000FFF799
:1042900064FD75A8FCF73EF82000FFF7EBFC7DB04D
:1042A0000CE0C046806B0110A41900201C670110AF
:1042B000FC6801109066011004670110F0BCBB4659
:1042C000B246A946A046F0BD30B5F54CA544F54927
:1042D000F5486844FFF7E2FBF449F54A6A4403A84D
:1042E000FCF780F96B46F04A9B181B886A4693845A
:1042F0006B46F04A9B181B786A46262152181370A9
:10430000ED49EE486844FFF7C9FBED49ED4A6A44C0
:104310000AA8FCF767F96B46E84A9B181B886A46AF
:104320004021521813806B46E74A9B181B786A4657
:10433000023152181370E54C2100E5486844FFF73C
:10434000ADFBE449E44A6A4411A8FCF74BF96B461B
:10435000DF4A9B181B886A465C21521813806B4603
:10436000DE4A9B181B786A46023152181370DC49EA
:10437000DC486844FFF792FBDB49DC4A6A4418A832
:10438000FCF730F96B46D74A9B181B886A467821A0
:10439000521813806B46D64A9B181B786A46023126
:1043A00052181370D349D4486844FFF777FBD349B8
:1043B000D34A6A441FA8FCF715F96B46CE4A9B18EE
:1043C0001B886A469421521813806B46CD4A9B186D
:1043D0001B786A46023152181370CB49CB486844A7
:1043E000FFF75CFBCA49CB4A6A4426A8FCF7FAF8F7
:1043F0006B46C64A9B181B886A46B0215218138028
:104400006B46C54A9B181B786A46023152181370D6
:10441000C249822040016844FFF740FBC049C14ABD
:104420006A442DA8FCF7DEF86B46822252019B18E5
:104430001B886A46CC21521813806B46BA4A9B18D7
:104440001B786A460231521813700021B74868443D
:10445000FFF724FBB649A52252016A4434A8FCF7B1
:10446000C1F86B46B14A9B181B886A46E82152186E
:1044700013806B46AF4A9B181B786A46023152186C
:104480001370AD49AD486844FFF708FBAC49AD4A2D
:104490006A443BA8FCF7A6F86B46A84A9B181B8801
:1044A0006A460532FF3213806B46A74A9B181B7879
:1044B0006A460732FF321370FF21A4486844FFF7B1
:1044C000EDFAA349A34A6A4442A8FCF78BF86B466D
:1044D0009E4A9B181B886A469021490052181380F7
:1044E0006B469D4A9B181B786A460231521813701E
:1044F0009A499B486844FFF7D1FA9A499A4A6A4414
:1045000049A8FCF76FF86B46954A9B181B886A46CA
:104510009E214900521813806B46944A9B181B78C1
:104520006A46023152181370914992486844FFF765
:10453000B5FA9149914A6A4450A8FCF753F86B4682
:104540008C4A9B181B886A46AC214900521813807C
:104550006B468B4A9B181B786A46023152181370BF
:10456000884989486844FFF799FA8849884A6A4423
:1045700057A8FCF737F86B46834A9B181B886A4696
:10458000BA214900521813806B46824A9B181B7847
:104590006A460231521813707F4980486844FFF719
:1045A0007DFA7F497F4A6A445EA8FCF71BF86B4698
:1045B0007A4A9B181B886A46C82149005218138002
:1045C0006B46794A9B181B786A4602315218137061
:1045D0007649832040016844FFF760FA7449754AC0
:1045E0006A4465A8FBF7FEFF6B46832252019B18C5
:1045F0001B886A46D6214900521813806B466E4AC2
:104600009B181B786A460231521813706B496C482C
:104610006844FFF743FA6B49A42252016A446CA82C
:10462000FBF7E0FF6B46664A9B181B886A46E4214D
:104630004900521813806B46634A9B181B786A46E0
:10464000023152181370614961486844FFF726FA35
:104650006049614A6A4473A8FBF7C4FF6B465C4A31
:104660009B181B886A46F2214900521813806B463A
:104670005A4A9B181B786A460231521813705849DF
:1046800058486844FFF70AFA5749584A6A447AA8D2
:10469000FBF7A8FF6B46534A9B181B88A8E0C0464F
:1046A0003CEBFFFFFFF8F00028100000C46501108C
:1046B000BC1400002A100000D7EBFA002C100000F8
:1046C000D0650110B81400002E100000FFFF00009C
:1046D00030100000E0650110B4140000321000003A
:1046E000D4FF7F0034100000E8650110B014000012
:1046F00036100000FFFFF00038100000F4650110D4
:10470000AC1400003A100000DCF5F5003C1000008D
:10471000FC650110A81400003E100000C4E4FF0076
:1047200004660110A41400004210000044100000B0
:104730000C66011046100000CDEBFF004810000091
:10474000146601109C1400004A1000004C10000078
:1047500090660110981400004E100000E22B8A00B1
:104760005010000024660110941400005210000044
:104770002A2AA50054100000F46A011090140000C9
:104780005610000087B8DE00581000003066011097
:104790008C1400005A100000A09E5F005C10000006
:1047A0003C660110881400005E10000000FF7F00CE
:1047B0004866011084140000621000001E69D200D7
:1047C000641000005466011066100000507FFF0066
:1047D00068100000606601107C1400006A10000080
:1047E000ED9564006C1000006866011078140000FC
:1047F0006A4680218900521813806B46F54A9B183F
:104800001B786A46F44952181370F449F448684416
:10481000FFF744F9F349F44A6A4481A8FBF7E2FE42
:104820006B46EF4A9B181B886A46872189005218FD
:1048300013806B46ED4A9B181B786A46EC49521868
:104840001370EC49EC486844FFF728F9EB49EC4A4F
:104850006A4488A8FBF7C6FE6B46E74A9B181B888C
:104860006A468E218900521813806B46E54A9B18D0
:104870001B786A46E449521813702100E3486844E3
:10488000FFF70CF9E249E34A6A448FA8FBF7AAFE56
:104890006B46DE4A9B181B886A4695218900521890
:1048A00013806B46DC4A9B181B786A46DB4952181A
:1048B0001370CC39FF39DA486844FFF7EFF8D9496B
:1048C000D94A6A4496A8FBF78DFE6B46D44A9B18DA
:1048D0001B886A469C218900521813806B46D34A74
:1048E0009B181B786A46D24952181370D14984200C
:1048F00040016844FFF7D2F8CF49D04A6A449DA8E6
:10490000FBF770FE6B46842252019B181B886A4697
:10491000A3218900521813806B46C94A9B181B7843
:104920006A46C84952181370C749C8486844FFF717
:10493000B5F8C749A32252016A44A4A8FBF752FE66
:104940006B46C24A9B181B886A46AA2189005218E6
:1049500013806B46BF4A9B181B786A46BE495218A3
:104960001370BE4C2100BE486844FFF797F8BD495C
:10497000BD4A6A44ABA8FBF735FE6B46B84A9B18A4
:104980001B886A46B1218900521813806B46B74ACA
:104990009B181B786A46B64952181370FF39FF39C5
:1049A000C901B4486844FFF779F8B349B34A6A4487
:1049B000B2A8FBF717FE6B46AE4A9B181B886A46E7
:1049C000B8218900521813806B46AD4A9B181B789A
:1049D0006A46AC49521813702100AB486844FFF78F
:1049E0005DF8AA49AA4A6A44B9A8FBF7FBFD6B46E1
:1049F000A54A9B181B886A46BF218900521813805C
:104A00006B46A44A9B181B786A46A3495218137038
:104A1000A249A3486844FFF741F8A249A24A6A4460
:104A2000C0A8FBF7DFFD6B469D4A9B181B886A46B2
:104A3000C6218900521813806B469C4A9B181B782C
:104A40006A469B49521813709A499B486844FFF77D
:104A500025F89A499A4A6A44C7A8FBF7C3FD6B46F2
:104A6000954A9B181B886A46CD21890052181380ED
:104A70006B46944A9B181B786A46934952181370E8
:104A8000924993486844FFF709F89249924A6A4468
:104A9000CEA8FBF7A7FD6B468D4A9B181B886A467C
:104AA000D4218900521813806B468C4A9B181B78BE
:104AB0006A468B49521813708A4985204001684420
:104AC000FEF7ECFF8849894A6A44D5A8FBF78AFDBE
:104AD0006B46852252019B181B886A46DB218900A0
:104AE000521813806B46824A9B181B786A4681498C
:104AF00052181370804981486844FEF7CFFF8049FF
:104B0000A22252016A44DCA8FBF76CFD6B467B4A8B
:104B10009B181B886A46E2218900521813806B4655
:104B2000784A9B181B786A467749521813708B2174
:104B3000090476486844FEF7B1FF7549754A6A442E
:104B4000E3A8FBF74FFD6B46704A9B181B886A462B
:104B5000E9218900521813806B466F4A9B181B7815
:104B60006A466E49521813706D496E486844FEF7E4
:104B700095FF6D496D4A6A44EAA8FBF733FD6B4621
:104B8000684A9B181B886A46F021890052181380D6
:104B90006B46674A9B181B786A4666495218137021
:104BA000654966486844FEF779FF6549654A6A4485
:104BB000F1A8FBF717FD6B46604A9B181B886A46F5
:104BC000F7218900521813806B465F4A9B181B78A7
:104BD0006A46BBE06E10000002020000DCF8FF0035
:104BE000701000007866011074140000721000004C
:104BF0001E0200003C14DC007410000084660110EA
:104C000070140000761000003A02000078100000D6
:104C10009C6601106C1400007A100000560200001F
:104C20007C1000008C660110681400007E100000EB
:104C3000720200008B8B0000986601106414000063
:104C4000821000008E0200000B86B8008410000065
:104C5000A466011086100000AA020000A9A9A900FC
:104C600088100000B46601105C1400008A10000077
:104C7000C60200008C100000C0660110581400002D
:104C80008E100000E202000090100000CC660110BF
:104C90005414000092100000FE0200006BB7BD002B
:104CA00094100000D8660110501400009610000007
:104CB0001A0300008B008B0098100000E4660110BE
:104CC0004C1400009A100000360300002F6B5500B2
:104CD0009C100000F0660110481400009E100000B7
:104CE00052030000008CFF00006701104414000014
:104CF000A21000006E030000CC329900A410000046
:104D00000C670110A61000008A030000A810000024
:104D1000186701103C140000AA100000A603000050
:104D20007A96E900AC1000002067011038140000EA
:104D3000AE100000C20300008FBC8F00B010000056
:104D40002C67011034140000B2100000F54952180D
:104D50001370F549F5486844FEF7A0FEF449F54A9A
:104D60006A44F8A8FBF73EFC6B46F04A9B181B8888
:104D70006A46FE218900521813806B46EE4A9B1842
:104D80001B786A46ED4952181370ED4C2100ED482E
:104D90006844FEF783FEEC49EC4A6A44FFA8FBF73F
:104DA00021FC6B46E74A9B181B886A46E849521863
:104DB00013806B46E74A9B181B786A46E6495218EF
:104DC00013702100E5486844FEF768FEE449E54AAF
:104DD0006A44FFA81C30FBF705FC6B46DF4A9B18B2
:104DE0001B886A468621C900521813806B46DE4A2A
:104DF0009B181B786A46DD4952181370DC498620DF
:104E000040016844FEF74AFEDA49DB4A6A44FFA8DB
:104E10003830FBF7E7FB6B46862252019B181B8854
:104E20006A46D649521813806B46D54A9B181B78A0
:104E30006A46D44952181370D349D4486844FEF7DF
:104E40002DFED349A12252016A44FFA85430FBF73A
:104E5000C9FB6B46CD4A9B181B886A468D21C90049
:104E6000521813806B46CB4A9B181B786A46CA4976
:104E700052181370C949CA486844FEF70FFEC94961
:104E8000C94A6A44FFA87030FBF7ACFB6B46C44AC2
:104E90009B181B886A46C549521813806B46C44A42
:104EA0009B181B786A46C34952181370C249C348FD
:104EB0006844FEF7F3FDC249C24A6A44FFA88C3039
:104EC000FBF790FB6B46BD4A9B181B886A469421F2
:104ED000C900521813806B46BB4A9B181B786A4660
:104EE000BA4952181370BA4C2100BA486844FEF708
:104EF000D5FDB949B94A6A44FFA8A830FBF772FB4F
:104F00006B46B44A9B181B886A46B54952181380F1
:104F10006B46B44A9B181B786A46B3495218137003
:104F20002100B2486844FEF7B9FDB149B14A6A446C
:104F3000FFA8C430FBF756FB6B46AC4A9B181B8896
:104F40006A469B21C900521813806B46AA4A9B18D7
:104F50001B786A46A94952181370A949A9486844A0
:104F6000FEF79CFDA849A94A6A44FFA8E030FBF778
:104F700039FB6B46A34A9B181B886A46A449521802
:104F800013806B46A34A9B181B786A46A2495218A5
:104F90001370A249A2486844FEF780FDA149A24AC5
:104FA0006A44FFA8FC30FBF71DFB6B469C4A9B182C
:104FB0001B886A46A221C900521813806B469B4A7F
:104FC0009B181B786A469A49521813709949872092
:104FD00040016844FEF762FD9749984A6A44984840
:104FE0006844FBF7FFFA6B46872252019B181B8827
:104FF0006A469449521813806B46934A9B181B7853
:105000006A46924952181370914992486844FEF7D3
:1050100045FD9149A02252016A44A620C00068447F
:10502000FBF7E0FA6B468B4A9B181B886A46A9215E
:10503000C900521813806B46884A9B181B786A4631
:10504000874952181370874987486844FEF726FD40
:105050008649874A6A4487486844FBF7C3FA6B4627
:10506000814A9B181B886A468349521813806B46F5
:10507000824A9B181B786A468149521813708149ED
:1050800081486844FEF70AFD8049814A6A44AD20A0
:10509000C0006844FBF7A6FA6B467B4A9B181B8846
:1050A0006A46B021C900521813806B46794A9B1892
:1050B0001B786A46784952181370784978486844D2
:1050C000FEF7ECFC7749784A6A4478486844FBF775
:1050D00089FA6B46724A9B181B886A4674495218B3
:1050E00013806B46734A9B181B786A4672495218A4
:1050F0001370724972486844FEF7D0FC7149724AD5
:105100006A44B420C0006844FBF76CFA6B466C4AF2
:105110009B181B886A46B721C900521813806B463A
:10512000D4E0C046DE0300008B3D4800B410000010
:105130003C67011030140000B6100000FA030000B4
:105140004F4F2F00B81000004C6701102C140000C6
:1051500014040000BA10000016040000BC10000087
:105160005C67011028140000BE100000320400002B
:10517000D1CE00006C670110241400004C04000024
:10518000C21000004E040000D3009400C4100000C0
:105190007C670110C61000006A0400009314FF0031
:1051A000C8100000886701101C140000840400006F
:1051B000CA10000086040000FFBF0000CC100000F1
:1051C0009467011018140000CE100000A204000023
:1051D00069696900D0100000A06701101414000074
:1051E000BC040000D2100000BE040000D410000077
:1051F000A867011010140000D6100000DA040000A7
:10520000FF901E00D8100000B06701100C140000C1
:10521000F4040000DA100000F60400002222B200BC
:10522000DC100000BC67011008140000DE10000054
:1052300012050000F0FAFF00C86701100414000016
:10524000140500002C050000E21000002E050000EF
:10525000228B2200E4100000D4670110E610000049
:105260004A050000FF00FF00E8100000E0670110A1
:10527000FC1300004C05000064050000EA1000006B
:1052800066050000DCDCDC00EC100000E8670110C3
:10529000F8130000EE10000082050000FFF8F8008F
:1052A000F0100000F4670110F41300008405000002
:1052B0009C050000F21000009E05000000D7FF00D2
:1052C000F410000000680110F0130000F64A9B186B
:1052D0001B786A46F54952181370F549F548684439
:1052E000FEF7DCFBF449F54A6A44F5486844FBF7ED
:1052F00079F96B46EF4A9B181B886A46F1495218A8
:1053000013806B46F04A9B181B786A46EF49521887
:105310001370EF4C2100EF486844FEF7BFFBEE49E5
:10532000EE4A6A44BB20C0006844FBF75BF96B4659
:10533000E84A9B181B886A46BE21C9005218138090
:105340006B46E74A9B181B786A46E6495218137069
:1053500080210902882040016844FEF79FFBE24952
:10536000E24A6A44E2486844FBF73CF96B4688220B
:1053700052019B181B886A46DE49521813806B46FF
:10538000DD4A9B181B786A46DC4952181370DC49C9
:10539000DC486844FEF782FBDB499F2252016A44E5
:1053A000C220C0006844FBF71DF96B46D54A9B1824
:1053B0001B886A46C521C900521813806B46D34A20
:1053C0009B181B786A46D249521813702100D148A5
:1053D0006844FEF763FBD049D04A6A44D048684429
:1053E000FBF700F96B46CB4A9B181B886A46CD49F0
:1053F000521813806B46CC4A9B181B786A46CB49DF
:1054000052181370CA49CB486844FEF747FBCA4993
:10541000CA4A6A44C920C0006844FBF7E3F86B46F7
:10542000C44A9B181B886A46CC21C90052181380B5
:105430006B46C34A9B181B786A46C24952181370C0
:10544000C149C2486844FEF729FBC149C14A6A44C0
:10545000C1486844FBF7C6F86B46BC4A9B181B88DA
:105460006A46BE49521813806B46BD4A9B181B788A
:105470006A46BC4952181370BB49BC486844FEF7E1
:105480000DFBBB49BB4A6A44D020C0006844FBF70F
:10549000A9F86B46B54A9B181B886A46D321C900F8
:1054A000521813806B46B44A9B181B786A46B3495E
:1054B00052181370B249B3486844FEF7EFFAB24984
:1054C000B24A6A44B2486844FBF78CF86B46AD4A6E
:1054D0009B181B886A46AF49521813806B46AE4A28
:1054E0009B181B786A46AD4952181370AC49AD48F9
:1054F0006844FEF7D3FAAC49AC4A6A44D720C000EE
:105500006844FBF76FF86B46A64A9B181B886A46EF
:10551000DA21C900521813806B46A54A9B181B78E4
:105520006A46A44952181370A3498920400168446F
:10553000FEF7B4FAA149A24A6A44A2486844FBF7BC
:1055400051F86B46892252019B181B886A469E4976
:10555000521813806B469D4A9B181B786A469C49DB
:10556000521813709B499C486844FEF797FA9B4970
:105570009E2252016A44DE20C0006844FBF732F8E4
:105580006B46954A9B181B886A46E121C900521850
:1055900013806B46924A9B181B786A4691495218B1
:1055A0001370914991486844FEF778FA9049914AFE
:1055B0006A4491486844FBF715F86B468B4A9B1880
:1055C0001B886A468D49521813806B468C4A9B187B
:1055D0001B786A468B49521813708B498B48684474
:1055E000FEF75CFA8A498B4A6A44E520C0006844A9
:1055F000FAF7F8FF6B46854A9B181B886A46E82134
:10560000C900521813806B46834A9B181B786A4660
:10561000824952181370824982486844FEF73EFA64
:105620008149824A6A4482486844FAF7DBFF6B4644
:105630007C4A9B181B886A467E49521813806B4629
:105640007D4A9B181B786A467C49521813707C4926
:105650007C486844FEF722FA7B497C4A6A44EC2085
:10566000C0006844FAF7BEFF6B46764A9B181B8859
:105670006A46EF21C900521813806B46744A9B1882
:105680001B786A467349521813707349734868440B
:10569000FEF704FA7249734A6A4473486844FAF799
:1056A000A1FF6B46E2E0C046F6100000BA0500001C
:1056B00020A5DA00F81000007C6A0110EC1300004D
:1056C000BC050000D4050000FA100000D60500005B
:1056D00080808000FC100000B8660110E813000014
:1056E000FE100000F2050000FC680110E413000049
:1056F000F40500000C060000021100000E06000078
:105700002FFFAD0004110000086801100611000011
:105710002A06000008110000D0660110DC1300000A
:105720002C060000440600000A1100004606000096
:10573000F0FFF0000C11000014680110D8130000F5
:105740000E11000062060000B469FF001011000095
:1057500020680110D4130000640600007C060000DD
:10576000121100007E0600005C5CCD0014110000E8
:1057700028680110D0130000161100009A060000DE
:1057800082004B001811000034680110CC13000097
:105790009C060000B40600001A110000B6060000C6
:1057A000F0FFFF001C1100003C680110C81300004E
:1057B0001E110000D20600008CE6F000DC6601102D
:1057C000C4130000D4060000EC0600002211000003
:1057D000EE060000FAE6E60024110000446801101D
:1057E000261100000A070000F5F0FF002811000054
:1057F00050680110BC1300000C07000024070000D3
:105800002A1100002607000000FC7C002C1100007B
:1058100060680110B81300002E110000420700005C
:10582000CDFAFF00301100006C680110B4130000C5
:10583000440700005C070000321100005E07000012
:10584000E6D8AD00341100007C680110B0130000F0
:10585000361100007A0700008080F0003811000047
:1058600088680110AC1300007C070000F54A9B1803
:105870001B886A46F449521813806B46F34A9B18FA
:105880001B786A46F24952181370F249F24868448C
:10589000FEF704F9F149F24A6A44F320C000684473
:1058A000FAF7A0FE6B46EC4A9B181B886A46F62165
:1058B000C900521813806B46EA4A9B181B786A4647
:1058C000E94952181370E9498A2040016844FEF7FB
:1058D000E5F8E749E74A6A44E7486844FAF782FE90
:1058E0006B468A2252019B181B886A46E34952186C
:1058F00013806B46E24A9B181B786A46E1495218AE
:105900001370E14C2100E1486844FEF7C7F8E04914
:105910009D2252016A44FA20C0006844FAF762FEF0
:105920006B46DA4A9B181B886A46FD21C90052184B
:1059300013806B46D74A9B181B786A46D649521883
:105940001370D649D6486844FEF7A8F8D549D64A18
:105950006A44D6486844FAF745FE6B46D04A9B181D
:105960001B886A46D249521813806B46D14A9B184D
:105970001B786A46D049521813702100CF486844FA
:10598000FEF78CF8CE49CF4A6A44CF486844FAF70C
:1059900029FE6B46C94A9B181B886A468221090169
:1059A000521813806B46C94A9B181B786A46C8492F
:1059B00052181370C749C8486844FEF76FF8C749C2
:1059C000C74A6A44C7486844FAF70CFE6B46C24AA5
:1059D0009B181B886A46C449521813806B46C34AF9
:1059E0009B181B786A46C24952181370C149C248B5
:1059F0006844FEF753F8C149C14A6A448420000153
:105A00006844FAF7EFFD6B46BB4A9B181B886A4651
:105A1000BC49521813806B46BB4A9B181B786A46D8
:105A2000BA4952181370BA49BA486844FEF736F8B2
:105A3000B949BA4A6A44BA486844FAF7D3FD6B4692
:105A4000B44A9B181B886A46B649521813806B46A5
:105A5000B54A9B181B786A46B44952181370B4496A
:105A6000B4486844FEF71AF8B349B44A6A44B448E3
:105A70006844FAF7B7FD6B46AE4A9B181B886A4626
:105A800089210901521813806B46AE4A9B181B7876
:105A90006A46AD4952181370AC4C21008B2040016E
:105AA0006844FDF7FBFFAA49AA4A6A44AA48684429
:105AB000FAF798FD6B468B2252019B181B886A46A9
:105AC000A649521813806B46A54A9B181B786A4654
:105AD000A449521813702100A3486844FDF7DEFF63
